{
  "_format": "hh-sol-artifact-1",
  "contractName": "BasicNft",
  "sourceName": "contracts/BaseNft.sol",
  "abi": [
    {
      "inputs": [],
      "stateMutability": "nonpayable",
      "type": "constructor"
    },
    {
      "inputs": [
        {
          "internalType": "address",
          "name": "sender",
          "type": "address"
        },
        {
          "internalType": "uint256",
          "name": "tokenId",
          "type": "uint256"
        },
        {
          "internalType": "address",
          "name": "owner",
          "type": "address"
        }
      ],
      "name": "ERC721IncorrectOwner",
      "type": "error"
    },
    {
      "inputs": [
        {
          "internalType": "address",
          "name": "operator",
          "type": "address"
        },
        {
          "internalType": "uint256",
          "name": "tokenId",
          "type": "uint256"
        }
      ],
      "name": "ERC721InsufficientApproval",
      "type": "error"
    },
    {
      "inputs": [
        {
          "internalType": "address",
          "name": "approver",
          "type": "address"
        }
      ],
      "name": "ERC721InvalidApprover",
      "type": "error"
    },
    {
      "inputs": [
        {
          "internalType": "address",
          "name": "operator",
          "type": "address"
        }
      ],
      "name": "ERC721InvalidOperator",
      "type": "error"
    },
    {
      "inputs": [
        {
          "internalType": "address",
          "name": "owner",
          "type": "address"
        }
      ],
      "name": "ERC721InvalidOwner",
      "type": "error"
    },
    {
      "inputs": [
        {
          "internalType": "address",
          "name": "receiver",
          "type": "address"
        }
      ],
      "name": "ERC721InvalidReceiver",
      "type": "error"
    },
    {
      "inputs": [
        {
          "internalType": "address",
          "name": "sender",
          "type": "address"
        }
      ],
      "name": "ERC721InvalidSender",
      "type": "error"
    },
    {
      "inputs": [
        {
          "internalType": "uint256",
          "name": "tokenId",
          "type": "uint256"
        }
      ],
      "name": "ERC721NonexistentToken",
      "type": "error"
    },
    {
      "anonymous": false,
      "inputs": [
        {
          "indexed": true,
          "internalType": "address",
          "name": "owner",
          "type": "address"
        },
        {
          "indexed": true,
          "internalType": "address",
          "name": "approved",
          "type": "address"
        },
        {
          "indexed": true,
          "internalType": "uint256",
          "name": "tokenId",
          "type": "uint256"
        }
      ],
      "name": "Approval",
      "type": "event"
    },
    {
      "anonymous": false,
      "inputs": [
        {
          "indexed": true,
          "internalType": "address",
          "name": "owner",
          "type": "address"
        },
        {
          "indexed": true,
          "internalType": "address",
          "name": "operator",
          "type": "address"
        },
        {
          "indexed": false,
          "internalType": "bool",
          "name": "approved",
          "type": "bool"
        }
      ],
      "name": "ApprovalForAll",
      "type": "event"
    },
    {
      "anonymous": false,
      "inputs": [
        {
          "indexed": true,
          "internalType": "uint256",
          "name": "tokenId",
          "type": "uint256"
        },
        {
          "indexed": false,
          "internalType": "string",
          "name": "tokenURI",
          "type": "string"
        }
      ],
      "name": "DogMinted",
      "type": "event"
    },
    {
      "anonymous": false,
      "inputs": [
        {
          "indexed": true,
          "internalType": "address",
          "name": "from",
          "type": "address"
        },
        {
          "indexed": true,
          "internalType": "address",
          "name": "to",
          "type": "address"
        },
        {
          "indexed": true,
          "internalType": "uint256",
          "name": "tokenId",
          "type": "uint256"
        }
      ],
      "name": "Transfer",
      "type": "event"
    },
    {
      "inputs": [
        {
          "internalType": "address",
          "name": "to",
          "type": "address"
        },
        {
          "internalType": "uint256",
          "name": "tokenId",
          "type": "uint256"
        }
      ],
      "name": "approve",
      "outputs": [],
      "stateMutability": "nonpayable",
      "type": "function"
    },
    {
      "inputs": [
        {
          "internalType": "address",
          "name": "owner",
          "type": "address"
        }
      ],
      "name": "balanceOf",
      "outputs": [
        {
          "internalType": "uint256",
          "name": "",
          "type": "uint256"
        }
      ],
      "stateMutability": "view",
      "type": "function"
    },
    {
      "inputs": [
        {
          "internalType": "uint256",
          "name": "tokenId",
          "type": "uint256"
        }
      ],
      "name": "getApproved",
      "outputs": [
        {
          "internalType": "address",
          "name": "",
          "type": "address"
        }
      ],
      "stateMutability": "view",
      "type": "function"
    },
    {
      "inputs": [],
      "name": "getTokenCounter",
      "outputs": [
        {
          "internalType": "uint256",
          "name": "",
          "type": "uint256"
        }
      ],
      "stateMutability": "view",
      "type": "function"
    },
    {
      "inputs": [
        {
          "internalType": "address",
          "name": "owner",
          "type": "address"
        },
        {
          "internalType": "address",
          "name": "operator",
          "type": "address"
        }
      ],
      "name": "isApprovedForAll",
      "outputs": [
        {
          "internalType": "bool",
          "name": "",
          "type": "bool"
        }
      ],
      "stateMutability": "view",
      "type": "function"
    },
    {
      "inputs": [
        {
          "internalType": "string",
          "name": "tokenURI_",
          "type": "string"
        }
      ],
      "name": "mintNft",
      "outputs": [],
      "stateMutability": "nonpayable",
      "type": "function"
    },
    {
      "inputs": [],
      "name": "name",
      "outputs": [
        {
          "internalType": "string",
          "name": "",
          "type": "string"
        }
      ],
      "stateMutability": "view",
      "type": "function"
    },
    {
      "inputs": [
        {
          "internalType": "uint256",
          "name": "tokenId",
          "type": "uint256"
        }
      ],
      "name": "ownerOf",
      "outputs": [
        {
          "internalType": "address",
          "name": "",
          "type": "address"
        }
      ],
      "stateMutability": "view",
      "type": "function"
    },
    {
      "inputs": [
        {
          "internalType": "address",
          "name": "from",
          "type": "address"
        },
        {
          "internalType": "address",
          "name": "to",
          "type": "address"
        },
        {
          "internalType": "uint256",
          "name": "tokenId",
          "type": "uint256"
        }
      ],
      "name": "safeTransferFrom",
      "outputs": [],
      "stateMutability": "nonpayable",
      "type": "function"
    },
    {
      "inputs": [
        {
          "internalType": "address",
          "name": "from",
          "type": "address"
        },
        {
          "internalType": "address",
          "name": "to",
          "type": "address"
        },
        {
          "internalType": "uint256",
          "name": "tokenId",
          "type": "uint256"
        },
        {
          "internalType": "bytes",
          "name": "data",
          "type": "bytes"
        }
      ],
      "name": "safeTransferFrom",
      "outputs": [],
      "stateMutability": "nonpayable",
      "type": "function"
    },
    {
      "inputs": [
        {
          "internalType": "address",
          "name": "operator",
          "type": "address"
        },
        {
          "internalType": "bool",
          "name": "approved",
          "type": "bool"
        }
      ],
      "name": "setApprovalForAll",
      "outputs": [],
      "stateMutability": "nonpayable",
      "type": "function"
    },
    {
      "inputs": [
        {
          "internalType": "bytes4",
          "name": "interfaceId",
          "type": "bytes4"
        }
      ],
      "name": "supportsInterface",
      "outputs": [
        {
          "internalType": "bool",
          "name": "",
          "type": "bool"
        }
      ],
      "stateMutability": "view",
      "type": "function"
    },
    {
      "inputs": [],
      "name": "symbol",
      "outputs": [
        {
          "internalType": "string",
          "name": "",
          "type": "string"
        }
      ],
      "stateMutability": "view",
      "type": "function"
    },
    {
      "inputs": [
        {
          "internalType": "uint256",
          "name": "tokenId",
          "type": "uint256"
        }
      ],
      "name": "tokenURI",
      "outputs": [
        {
          "internalType": "string",
          "name": "",
          "type": "string"
        }
      ],
      "stateMutability": "view",
      "type": "function"
    },
    {
      "inputs": [
        {
          "internalType": "address",
          "name": "from",
          "type": "address"
        },
        {
          "internalType": "address",
          "name": "to",
          "type": "address"
        },
        {
          "internalType": "uint256",
          "name": "tokenId",
          "type": "uint256"
        }
      ],
      "name": "transferFrom",
      "outputs": [],
      "stateMutability": "nonpayable",
      "type": "function"
    }
  ],
  "bytecode": "0x608060405234801561001057600080fd5b506040518060400160405280600581526020017f446f6769650000000000000000000000000000000000000000000000000000008152506040518060400160405280600381526020017f444f470000000000000000000000000000000000000000000000000000000000815250816000908161008c91906102fc565b50806001908161009c91906102fc565b50505060006006819055506103ce565b600081519050919050565b7f4e487b7100000000000000000000000000000000000000000000000000000000600052604160045260246000fd5b7f4e487b7100000000000000000000000000000000000000000000000000000000600052602260045260246000fd5b6000600282049050600182168061012d57607f821691505b6020821081036101405761013f6100e6565b5b50919050565b60008190508160005260206000209050919050565b60006020601f8301049050919050565b600082821b905092915050565b6000600883026101a87fffffffffffffffffffffffffffffffffffffffffffffffffffffffffffffffff8261016b565b6101b2868361016b565b95508019841693508086168417925050509392505050565b6000819050919050565b6000819050919050565b60006101f96101f46101ef846101ca565b6101d4565b6101ca565b9050919050565b6000819050919050565b610213836101de565b61022761021f82610200565b848454610178565b825550505050565b600090565b61023c61022f565b61024781848461020a565b505050565b5b8181101561026b57610260600082610234565b60018101905061024d565b5050565b601f8211156102b05761028181610146565b61028a8461015b565b81016020851015610299578190505b6102ad6102a58561015b565b83018261024c565b50505b505050565b600082821c905092915050565b60006102d3600019846008026102b5565b1980831691505092915050565b60006102ec83836102c2565b9150826002028217905092915050565b610305826100ac565b67ffffffffffffffff81111561031e5761031d6100b7565b5b6103288254610115565b61033382828561026f565b600060209050601f8311600181146103665760008415610354578287015190505b61035e85826102e0565b8655506103c6565b601f19841661037486610146565b60005b8281101561039c57848901518255600182019150602085019450602081019050610377565b868310156103b957848901516103b5601f8916826102c2565b8355505b6001600288020188555050505b505050505050565b611fee806103dd6000396000f3fe608060405234801561001057600080fd5b50600436106100f55760003560e01c80636e02007d11610097578063b88d4fde11610066578063b88d4fde14610284578063c87b56dd146102a0578063da86f4a9146102d0578063e985e9c5146102ec576100f5565b80636e02007d146101fc57806370a082311461021a57806395d89b411461024a578063a22cb46514610268576100f5565b8063095ea7b3116100d3578063095ea7b31461017857806323b872dd1461019457806342842e0e146101b05780636352211e146101cc576100f5565b806301ffc9a7146100fa57806306fdde031461012a578063081812fc14610148575b600080fd5b610114600480360381019061010f91906114fc565b61031c565b6040516101219190611544565b60405180910390f35b6101326103fe565b60405161013f91906115ef565b60405180910390f35b610162600480360381019061015d9190611647565b610490565b60405161016f91906116b5565b60405180910390f35b610192600480360381019061018d91906116fc565b6104ac565b005b6101ae60048036038101906101a9919061173c565b6104c2565b005b6101ca60048036038101906101c5919061173c565b6105c4565b005b6101e660048036038101906101e19190611647565b6105e4565b6040516101f391906116b5565b60405180910390f35b6102046105f6565b604051610211919061179e565b60405180910390f35b610234600480360381019061022f91906117b9565b610600565b604051610241919061179e565b60405180910390f35b6102526106ba565b60405161025f91906115ef565b60405180910390f35b610282600480360381019061027d9190611812565b61074c565b005b61029e60048036038101906102999190611987565b610762565b005b6102ba60048036038101906102b59190611647565b610787565b6040516102c791906115ef565b60405180910390f35b6102ea60048036038101906102e59190611aab565b610836565b005b61030660048036038101906103019190611af4565b6108b7565b6040516103139190611544565b60405180910390f35b60007f80ac58cd000000000000000000000000000000000000000000000000000000007bffffffffffffffffffffffffffffffffffffffffffffffffffffffff1916827bffffffffffffffffffffffffffffffffffffffffffffffffffffffff191614806103e757507f5b5e139f000000000000000000000000000000000000000000000000000000007bffffffffffffffffffffffffffffffffffffffffffffffffffffffff1916827bffffffffffffffffffffffffffffffffffffffffffffffffffffffff1916145b806103f757506103f68261094b565b5b9050919050565b60606000805461040d90611b63565b80601f016020809104026020016040519081016040528092919081815260200182805461043990611b63565b80156104865780601f1061045b57610100808354040283529160200191610486565b820191906000526020600020905b81548152906001019060200180831161046957829003601f168201915b5050505050905090565b600061049b826109b5565b506104a582610a3d565b9050919050565b6104be82826104b9610a7a565b610a82565b5050565b600073ffffffffffffffffffffffffffffffffffffffff168273ffffffffffffffffffffffffffffffffffffffff16036105345760006040517f64a0ae9200000000000000000000000000000000000000000000000000000000815260040161052b91906116b5565b60405180910390fd5b60006105488383610543610a7a565b610a94565b90508373ffffffffffffffffffffffffffffffffffffffff168173ffffffffffffffffffffffffffffffffffffffff16146105be578382826040517f64283d7b0000000000000000000000000000000000000000000000000000000081526004016105b593929190611b94565b60405180910390fd5b50505050565b6105df83838360405180602001604052806000815250610762565b505050565b60006105ef826109b5565b9050919050565b6000600654905090565b60008073ffffffffffffffffffffffffffffffffffffffff168273ffffffffffffffffffffffffffffffffffffffff16036106735760006040517f89c62b6400000000000000000000000000000000000000000000000000000000815260040161066a91906116b5565b60405180910390fd5b600360008373ffffffffffffffffffffffffffffffffffffffff1673ffffffffffffffffffffffffffffffffffffffff168152602001908152602001600020549050919050565b6060600180546106c990611b63565b80601f01602080910402602001604051908101604052809291908181526020018280546106f590611b63565b80156107425780601f1061071757610100808354040283529160200191610742565b820191906000526020600020905b81548152906001019060200180831161072557829003601f168201915b5050505050905090565b61075e610757610a7a565b8383610cae565b5050565b61076d8484846104c2565b610781610778610a7a565b85858585610e1d565b50505050565b6060610792826109b5565b506007600083815260200190815260200160002080546107b190611b63565b80601f01602080910402602001604051908101604052809291908181526020018280546107dd90611b63565b801561082a5780601f106107ff5761010080835404028352916020019161082a565b820191906000526020600020905b81548152906001019060200180831161080d57829003601f168201915b50505050509050919050565b61084233600654610fce565b8060076000600654815260200190815260200160002090816108649190611d77565b506006547f804a443cf2c526e83e06f9667e241855b89f991efd6d0218e2f64e5654d64ddd8260405161089791906115ef565b60405180910390a260016006546108ae9190611e78565b60068190555050565b6000600560008473ffffffffffffffffffffffffffffffffffffffff1673ffffffffffffffffffffffffffffffffffffffff16815260200190815260200160002060008373ffffffffffffffffffffffffffffffffffffffff1673ffffffffffffffffffffffffffffffffffffffff16815260200190815260200160002060009054906101000a900460ff16905092915050565b60007f01ffc9a7000000000000000000000000000000000000000000000000000000007bffffffffffffffffffffffffffffffffffffffffffffffffffffffff1916827bffffffffffffffffffffffffffffffffffffffffffffffffffffffff1916149050919050565b6000806109c183610fec565b9050600073ffffffffffffffffffffffffffffffffffffffff168173ffffffffffffffffffffffffffffffffffffffff1603610a3457826040517f7e273289000000000000000000000000000000000000000000000000000000008152600401610a2b919061179e565b60405180910390fd5b80915050919050565b60006004600083815260200190815260200160002060009054906101000a900473ffffffffffffffffffffffffffffffffffffffff169050919050565b600033905090565b610a8f8383836001611029565b505050565b600080610aa084610fec565b9050600073ffffffffffffffffffffffffffffffffffffffff168373ffffffffffffffffffffffffffffffffffffffff1614610ae257610ae18184866111ee565b5b600073ffffffffffffffffffffffffffffffffffffffff168173ffffffffffffffffffffffffffffffffffffffff1614610b7357610b24600085600080611029565b6001600360008373ffffffffffffffffffffffffffffffffffffffff1673ffffffffffffffffffffffffffffffffffffffff168152602001908152602001600020600082825403925050819055505b600073ffffffffffffffffffffffffffffffffffffffff168573ffffffffffffffffffffffffffffffffffffffff1614610bf6576001600360008773ffffffffffffffffffffffffffffffffffffffff1673ffffffffffffffffffffffffffffffffffffffff168152602001908152602001600020600082825401925050819055505b846002600086815260200190815260200160002060006101000a81548173ffffffffffffffffffffffffffffffffffffffff021916908373ffffffffffffffffffffffffffffffffffffffff160217905550838573ffffffffffffffffffffffffffffffffffffffff168273ffffffffffffffffffffffffffffffffffffffff167fddf252ad1be2c89b69c2b068fc378daa952ba7f163c4a11628f55a4df523b3ef60405160405180910390a4809150509392505050565b600073ffffffffffffffffffffffffffffffffffffffff168273ffffffffffffffffffffffffffffffffffffffff1603610d1f57816040517f5b08ba18000000000000000000000000000000000000000000000000000000008152600401610d1691906116b5565b60405180910390fd5b80600560008573ffffffffffffffffffffffffffffffffffffffff1673ffffffffffffffffffffffffffffffffffffffff16815260200190815260200160002060008473ffffffffffffffffffffffffffffffffffffffff1673ffffffffffffffffffffffffffffffffffffffff16815260200190815260200160002060006101000a81548160ff0219169083151502179055508173ffffffffffffffffffffffffffffffffffffffff168373ffffffffffffffffffffffffffffffffffffffff167f17307eab39ab6107e8899845ad3d59bd9653f200f220920489ca2b5937696c3183604051610e109190611544565b60405180910390a3505050565b60008373ffffffffffffffffffffffffffffffffffffffff163b1115610fc7578273ffffffffffffffffffffffffffffffffffffffff1663150b7a02868685856040518563ffffffff1660e01b8152600401610e7c9493929190611f01565b6020604051808303816000875af1925050508015610eb857506040513d601f19601f82011682018060405250810190610eb59190611f62565b60015b610f3c573d8060008114610ee8576040519150601f19603f3d011682016040523d82523d6000602084013e610eed565b606091505b506000815103610f3457836040517f64a0ae92000000000000000000000000000000000000000000000000000000008152600401610f2b91906116b5565b60405180910390fd5b805181602001fd5b63150b7a0260e01b7bffffffffffffffffffffffffffffffffffffffffffffffffffffffff1916817bffffffffffffffffffffffffffffffffffffffffffffffffffffffff191614610fc557836040517f64a0ae92000000000000000000000000000000000000000000000000000000008152600401610fbc91906116b5565b60405180910390fd5b505b5050505050565b610fe88282604051806020016040528060008152506112b2565b5050565b60006002600083815260200190815260200160002060009054906101000a900473ffffffffffffffffffffffffffffffffffffffff169050919050565b80806110625750600073ffffffffffffffffffffffffffffffffffffffff168273ffffffffffffffffffffffffffffffffffffffff1614155b15611196576000611072846109b5565b9050600073ffffffffffffffffffffffffffffffffffffffff168373ffffffffffffffffffffffffffffffffffffffff16141580156110dd57508273ffffffffffffffffffffffffffffffffffffffff168173ffffffffffffffffffffffffffffffffffffffff1614155b80156110f057506110ee81846108b7565b155b1561113257826040517fa9fbf51f00000000000000000000000000000000000000000000000000000000815260040161112991906116b5565b60405180910390fd5b811561119457838573ffffffffffffffffffffffffffffffffffffffff168273ffffffffffffffffffffffffffffffffffffffff167f8c5be1e5ebec7d5bd14f71427d1e84f3dd0314c0f7b2291e5b200ac8c7c3b92560405160405180910390a45b505b836004600085815260200190815260200160002060006101000a81548173ffffffffffffffffffffffffffffffffffffffff021916908373ffffffffffffffffffffffffffffffffffffffff16021790555050505050565b6111f98383836112d6565b6112ad57600073ffffffffffffffffffffffffffffffffffffffff168373ffffffffffffffffffffffffffffffffffffffff160361126e57806040517f7e273289000000000000000000000000000000000000000000000000000000008152600401611265919061179e565b60405180910390fd5b81816040517f177e802f0000000000000000000000000000000000000000000000000000000081526004016112a4929190611f8f565b60405180910390fd5b505050565b6112bc8383611397565b6112d16112c7610a7a565b6000858585610e1d565b505050565b60008073ffffffffffffffffffffffffffffffffffffffff168373ffffffffffffffffffffffffffffffffffffffff161415801561138e57508273ffffffffffffffffffffffffffffffffffffffff168473ffffffffffffffffffffffffffffffffffffffff16148061134f575061134e84846108b7565b5b8061138d57508273ffffffffffffffffffffffffffffffffffffffff1661137583610a3d565b73ffffffffffffffffffffffffffffffffffffffff16145b5b90509392505050565b600073ffffffffffffffffffffffffffffffffffffffff168273ffffffffffffffffffffffffffffffffffffffff16036114095760006040517f64a0ae9200000000000000000000000000000000000000000000000000000000815260040161140091906116b5565b60405180910390fd5b600061141783836000610a94565b9050600073ffffffffffffffffffffffffffffffffffffffff168173ffffffffffffffffffffffffffffffffffffffff161461148b5760006040517f73c6ac6e00000000000000000000000000000000000000000000000000000000815260040161148291906116b5565b60405180910390fd5b505050565b6000604051905090565b600080fd5b600080fd5b60007fffffffff0000000000000000000000000000000000000000000000000000000082169050919050565b6114d9816114a4565b81146114e457600080fd5b50565b6000813590506114f6816114d0565b92915050565b6000602082840312156115125761151161149a565b5b6000611520848285016114e7565b91505092915050565b60008115159050919050565b61153e81611529565b82525050565b60006020820190506115596000830184611535565b92915050565b600081519050919050565b600082825260208201905092915050565b60005b8381101561159957808201518184015260208101905061157e565b60008484015250505050565b6000601f19601f8301169050919050565b60006115c18261155f565b6115cb818561156a565b93506115db81856020860161157b565b6115e4816115a5565b840191505092915050565b6000602082019050818103600083015261160981846115b6565b905092915050565b6000819050919050565b61162481611611565b811461162f57600080fd5b50565b6000813590506116418161161b565b92915050565b60006020828403121561165d5761165c61149a565b5b600061166b84828501611632565b91505092915050565b600073ffffffffffffffffffffffffffffffffffffffff82169050919050565b600061169f82611674565b9050919050565b6116af81611694565b82525050565b60006020820190506116ca60008301846116a6565b92915050565b6116d981611694565b81146116e457600080fd5b50565b6000813590506116f6816116d0565b92915050565b600080604083850312156117135761171261149a565b5b6000611721858286016116e7565b925050602061173285828601611632565b9150509250929050565b6000806000606084860312156117555761175461149a565b5b6000611763868287016116e7565b9350506020611774868287016116e7565b925050604061178586828701611632565b9150509250925092565b61179881611611565b82525050565b60006020820190506117b3600083018461178f565b92915050565b6000602082840312156117cf576117ce61149a565b5b60006117dd848285016116e7565b91505092915050565b6117ef81611529565b81146117fa57600080fd5b50565b60008135905061180c816117e6565b92915050565b600080604083850312156118295761182861149a565b5b6000611837858286016116e7565b9250506020611848858286016117fd565b9150509250929050565b600080fd5b600080fd5b7f4e487b7100000000000000000000000000000000000000000000000000000000600052604160045260246000fd5b611894826115a5565b810181811067ffffffffffffffff821117156118b3576118b261185c565b5b80604052505050565b60006118c6611490565b90506118d2828261188b565b919050565b600067ffffffffffffffff8211156118f2576118f161185c565b5b6118fb826115a5565b9050602081019050919050565b82818337600083830152505050565b600061192a611925846118d7565b6118bc565b90508281526020810184848401111561194657611945611857565b5b611951848285611908565b509392505050565b600082601f83011261196e5761196d611852565b5b813561197e848260208601611917565b91505092915050565b600080600080608085870312156119a1576119a061149a565b5b60006119af878288016116e7565b94505060206119c0878288016116e7565b93505060406119d187828801611632565b925050606085013567ffffffffffffffff8111156119f2576119f161149f565b5b6119fe87828801611959565b91505092959194509250565b600067ffffffffffffffff821115611a2557611a2461185c565b5b611a2e826115a5565b9050602081019050919050565b6000611a4e611a4984611a0a565b6118bc565b905082815260208101848484011115611a6a57611a69611857565b5b611a75848285611908565b509392505050565b600082601f830112611a9257611a91611852565b5b8135611aa2848260208601611a3b565b91505092915050565b600060208284031215611ac157611ac061149a565b5b600082013567ffffffffffffffff811115611adf57611ade61149f565b5b611aeb84828501611a7d565b91505092915050565b60008060408385031215611b0b57611b0a61149a565b5b6000611b19858286016116e7565b9250506020611b2a858286016116e7565b9150509250929050565b7f4e487b7100000000000000000000000000000000000000000000000000000000600052602260045260246000fd5b60006002820490506001821680611b7b57607f821691505b602082108103611b8e57611b8d611b34565b5b50919050565b6000606082019050611ba960008301866116a6565b611bb6602083018561178f565b611bc360408301846116a6565b949350505050565b60008190508160005260206000209050919050565b60006020601f8301049050919050565b600082821b905092915050565b600060088302611c2d7fffffffffffffffffffffffffffffffffffffffffffffffffffffffffffffffff82611bf0565b611c378683611bf0565b95508019841693508086168417925050509392505050565b6000819050919050565b6000611c74611c6f611c6a84611611565b611c4f565b611611565b9050919050565b6000819050919050565b611c8e83611c59565b611ca2611c9a82611c7b565b848454611bfd565b825550505050565b600090565b611cb7611caa565b611cc2818484611c85565b505050565b5b81811015611ce657611cdb600082611caf565b600181019050611cc8565b5050565b601f821115611d2b57611cfc81611bcb565b611d0584611be0565b81016020851015611d14578190505b611d28611d2085611be0565b830182611cc7565b50505b505050565b600082821c905092915050565b6000611d4e60001984600802611d30565b1980831691505092915050565b6000611d678383611d3d565b9150826002028217905092915050565b611d808261155f565b67ffffffffffffffff811115611d9957611d9861185c565b5b611da38254611b63565b611dae828285611cea565b600060209050601f831160018114611de15760008415611dcf578287015190505b611dd98582611d5b565b865550611e41565b601f198416611def86611bcb565b60005b82811015611e1757848901518255600182019150602085019450602081019050611df2565b86831015611e345784890151611e30601f891682611d3d565b8355505b6001600288020188555050505b505050505050565b7f4e487b7100000000000000000000000000000000000000000000000000000000600052601160045260246000fd5b6000611e8382611611565b9150611e8e83611611565b9250828201905080821115611ea657611ea5611e49565b5b92915050565b600081519050919050565b600082825260208201905092915050565b6000611ed382611eac565b611edd8185611eb7565b9350611eed81856020860161157b565b611ef6816115a5565b840191505092915050565b6000608082019050611f1660008301876116a6565b611f2360208301866116a6565b611f30604083018561178f565b8181036060830152611f428184611ec8565b905095945050505050565b600081519050611f5c816114d0565b92915050565b600060208284031215611f7857611f7761149a565b5b6000611f8684828501611f4d565b91505092915050565b6000604082019050611fa460008301856116a6565b611fb1602083018461178f565b939250505056fea26469706673582212209cf110ac3d3e8d93c72739687091fd5c1d0097dc3ec3013b3e4fb4af981f914764736f6c634300081c0033",
  "linkReferences": {},
  "deployedLinkReferences": {}
}