{
  "_format": "hh-sol-artifact-1",
  "contractName": "Marketplace",
  "sourceName": "contracts/Marketplace.sol",
  "abi": [
    {
      "inputs": [],
      "stateMutability": "nonpayable",
      "type": "constructor"
    },
    {
      "inputs": [
        {
          "internalType": "address",
          "name": "sender",
          "type": "address"
        },
        {
          "internalType": "uint256",
          "name": "tokenId",
          "type": "uint256"
        },
        {
          "internalType": "address",
          "name": "owner",
          "type": "address"
        }
      ],
      "name": "ERC721IncorrectOwner",
      "type": "error"
    },
    {
      "inputs": [
        {
          "internalType": "address",
          "name": "operator",
          "type": "address"
        },
        {
          "internalType": "uint256",
          "name": "tokenId",
          "type": "uint256"
        }
      ],
      "name": "ERC721InsufficientApproval",
      "type": "error"
    },
    {
      "inputs": [
        {
          "internalType": "address",
          "name": "approver",
          "type": "address"
        }
      ],
      "name": "ERC721InvalidApprover",
      "type": "error"
    },
    {
      "inputs": [
        {
          "internalType": "address",
          "name": "operator",
          "type": "address"
        }
      ],
      "name": "ERC721InvalidOperator",
      "type": "error"
    },
    {
      "inputs": [
        {
          "internalType": "address",
          "name": "owner",
          "type": "address"
        }
      ],
      "name": "ERC721InvalidOwner",
      "type": "error"
    },
    {
      "inputs": [
        {
          "internalType": "address",
          "name": "receiver",
          "type": "address"
        }
      ],
      "name": "ERC721InvalidReceiver",
      "type": "error"
    },
    {
      "inputs": [
        {
          "internalType": "address",
          "name": "sender",
          "type": "address"
        }
      ],
      "name": "ERC721InvalidSender",
      "type": "error"
    },
    {
      "inputs": [
        {
          "internalType": "uint256",
          "name": "tokenId",
          "type": "uint256"
        }
      ],
      "name": "ERC721NonexistentToken",
      "type": "error"
    },
    {
      "anonymous": false,
      "inputs": [
        {
          "indexed": true,
          "internalType": "address",
          "name": "owner",
          "type": "address"
        },
        {
          "indexed": true,
          "internalType": "address",
          "name": "approved",
          "type": "address"
        },
        {
          "indexed": true,
          "internalType": "uint256",
          "name": "tokenId",
          "type": "uint256"
        }
      ],
      "name": "Approval",
      "type": "event"
    },
    {
      "anonymous": false,
      "inputs": [
        {
          "indexed": true,
          "internalType": "address",
          "name": "owner",
          "type": "address"
        },
        {
          "indexed": true,
          "internalType": "address",
          "name": "operator",
          "type": "address"
        },
        {
          "indexed": false,
          "internalType": "bool",
          "name": "approved",
          "type": "bool"
        }
      ],
      "name": "ApprovalForAll",
      "type": "event"
    },
    {
      "anonymous": false,
      "inputs": [
        {
          "indexed": true,
          "internalType": "uint256",
          "name": "tokenId",
          "type": "uint256"
        }
      ],
      "name": "ListingCancelled",
      "type": "event"
    },
    {
      "anonymous": false,
      "inputs": [
        {
          "indexed": true,
          "internalType": "uint256",
          "name": "tokenId",
          "type": "uint256"
        },
        {
          "indexed": false,
          "internalType": "uint256",
          "name": "price",
          "type": "uint256"
        },
        {
          "indexed": false,
          "internalType": "address",
          "name": "buyer",
          "type": "address"
        }
      ],
      "name": "NftBought",
      "type": "event"
    },
    {
      "anonymous": false,
      "inputs": [
        {
          "indexed": true,
          "internalType": "uint256",
          "name": "tokenId",
          "type": "uint256"
        },
        {
          "indexed": false,
          "internalType": "string",
          "name": "tokenURI",
          "type": "string"
        },
        {
          "indexed": false,
          "internalType": "address",
          "name": "creator",
          "type": "address"
        }
      ],
      "name": "NftCreated",
      "type": "event"
    },
    {
      "anonymous": false,
      "inputs": [
        {
          "indexed": true,
          "internalType": "uint256",
          "name": "tokenId",
          "type": "uint256"
        },
        {
          "indexed": false,
          "internalType": "uint256",
          "name": "price",
          "type": "uint256"
        },
        {
          "indexed": false,
          "internalType": "address",
          "name": "seller",
          "type": "address"
        }
      ],
      "name": "NftListed",
      "type": "event"
    },
    {
      "anonymous": false,
      "inputs": [
        {
          "indexed": true,
          "internalType": "address",
          "name": "from",
          "type": "address"
        },
        {
          "indexed": true,
          "internalType": "address",
          "name": "to",
          "type": "address"
        },
        {
          "indexed": true,
          "internalType": "uint256",
          "name": "tokenId",
          "type": "uint256"
        }
      ],
      "name": "Transfer",
      "type": "event"
    },
    {
      "inputs": [],
      "name": "FEE_PERCENTAGE",
      "outputs": [
        {
          "internalType": "uint256",
          "name": "",
          "type": "uint256"
        }
      ],
      "stateMutability": "view",
      "type": "function"
    },
    {
      "inputs": [
        {
          "internalType": "address",
          "name": "to",
          "type": "address"
        },
        {
          "internalType": "uint256",
          "name": "tokenId",
          "type": "uint256"
        }
      ],
      "name": "approve",
      "outputs": [],
      "stateMutability": "nonpayable",
      "type": "function"
    },
    {
      "inputs": [
        {
          "internalType": "address",
          "name": "owner",
          "type": "address"
        }
      ],
      "name": "balanceOf",
      "outputs": [
        {
          "internalType": "uint256",
          "name": "",
          "type": "uint256"
        }
      ],
      "stateMutability": "view",
      "type": "function"
    },
    {
      "inputs": [
        {
          "internalType": "uint256",
          "name": "tokenId",
          "type": "uint256"
        }
      ],
      "name": "buyNft",
      "outputs": [],
      "stateMutability": "payable",
      "type": "function"
    },
    {
      "inputs": [
        {
          "internalType": "uint256",
          "name": "tokenId",
          "type": "uint256"
        }
      ],
      "name": "cancelListing",
      "outputs": [],
      "stateMutability": "nonpayable",
      "type": "function"
    },
    {
      "inputs": [
        {
          "internalType": "string",
          "name": "tokenURI_",
          "type": "string"
        }
      ],
      "name": "createNft",
      "outputs": [],
      "stateMutability": "nonpayable",
      "type": "function"
    },
    {
      "inputs": [],
      "name": "feeRecipient",
      "outputs": [
        {
          "internalType": "address",
          "name": "",
          "type": "address"
        }
      ],
      "stateMutability": "view",
      "type": "function"
    },
    {
      "inputs": [
        {
          "internalType": "uint256",
          "name": "tokenId",
          "type": "uint256"
        }
      ],
      "name": "getApproved",
      "outputs": [
        {
          "internalType": "address",
          "name": "",
          "type": "address"
        }
      ],
      "stateMutability": "view",
      "type": "function"
    },
    {
      "inputs": [
        {
          "internalType": "uint256",
          "name": "tokenId",
          "type": "uint256"
        }
      ],
      "name": "getListing",
      "outputs": [
        {
          "components": [
            {
              "internalType": "uint256",
              "name": "price",
              "type": "uint256"
            },
            {
              "internalType": "address",
              "name": "seller",
              "type": "address"
            }
          ],
          "internalType": "struct Marketplace.Listing",
          "name": "",
          "type": "tuple"
        }
      ],
      "stateMutability": "view",
      "type": "function"
    },
    {
      "inputs": [
        {
          "internalType": "address",
          "name": "owner",
          "type": "address"
        },
        {
          "internalType": "address",
          "name": "operator",
          "type": "address"
        }
      ],
      "name": "isApprovedForAll",
      "outputs": [
        {
          "internalType": "bool",
          "name": "",
          "type": "bool"
        }
      ],
      "stateMutability": "view",
      "type": "function"
    },
    {
      "inputs": [
        {
          "internalType": "uint256",
          "name": "tokenId",
          "type": "uint256"
        },
        {
          "internalType": "uint256",
          "name": "price",
          "type": "uint256"
        }
      ],
      "name": "listNft",
      "outputs": [],
      "stateMutability": "nonpayable",
      "type": "function"
    },
    {
      "inputs": [],
      "name": "name",
      "outputs": [
        {
          "internalType": "string",
          "name": "",
          "type": "string"
        }
      ],
      "stateMutability": "view",
      "type": "function"
    },
    {
      "inputs": [
        {
          "internalType": "uint256",
          "name": "tokenId",
          "type": "uint256"
        }
      ],
      "name": "ownerOf",
      "outputs": [
        {
          "internalType": "address",
          "name": "",
          "type": "address"
        }
      ],
      "stateMutability": "view",
      "type": "function"
    },
    {
      "inputs": [
        {
          "internalType": "address",
          "name": "from",
          "type": "address"
        },
        {
          "internalType": "address",
          "name": "to",
          "type": "address"
        },
        {
          "internalType": "uint256",
          "name": "tokenId",
          "type": "uint256"
        }
      ],
      "name": "safeTransferFrom",
      "outputs": [],
      "stateMutability": "nonpayable",
      "type": "function"
    },
    {
      "inputs": [
        {
          "internalType": "address",
          "name": "from",
          "type": "address"
        },
        {
          "internalType": "address",
          "name": "to",
          "type": "address"
        },
        {
          "internalType": "uint256",
          "name": "tokenId",
          "type": "uint256"
        },
        {
          "internalType": "bytes",
          "name": "data",
          "type": "bytes"
        }
      ],
      "name": "safeTransferFrom",
      "outputs": [],
      "stateMutability": "nonpayable",
      "type": "function"
    },
    {
      "inputs": [
        {
          "internalType": "address",
          "name": "operator",
          "type": "address"
        },
        {
          "internalType": "bool",
          "name": "approved",
          "type": "bool"
        }
      ],
      "name": "setApprovalForAll",
      "outputs": [],
      "stateMutability": "nonpayable",
      "type": "function"
    },
    {
      "inputs": [
        {
          "internalType": "bytes4",
          "name": "interfaceId",
          "type": "bytes4"
        }
      ],
      "name": "supportsInterface",
      "outputs": [
        {
          "internalType": "bool",
          "name": "",
          "type": "bool"
        }
      ],
      "stateMutability": "view",
      "type": "function"
    },
    {
      "inputs": [],
      "name": "symbol",
      "outputs": [
        {
          "internalType": "string",
          "name": "",
          "type": "string"
        }
      ],
      "stateMutability": "view",
      "type": "function"
    },
    {
      "inputs": [
        {
          "internalType": "uint256",
          "name": "tokenId",
          "type": "uint256"
        }
      ],
      "name": "tokenURI",
      "outputs": [
        {
          "internalType": "string",
          "name": "",
          "type": "string"
        }
      ],
      "stateMutability": "view",
      "type": "function"
    },
    {
      "inputs": [
        {
          "internalType": "address",
          "name": "from",
          "type": "address"
        },
        {
          "internalType": "address",
          "name": "to",
          "type": "address"
        },
        {
          "internalType": "uint256",
          "name": "tokenId",
          "type": "uint256"
        }
      ],
      "name": "transferFrom",
      "outputs": [],
      "stateMutability": "nonpayable",
      "type": "function"
    }
  ],
  "bytecode": "0x608060405234801561001057600080fd5b506040518060400160405280600b81526020017f4d61726b6574706c6163650000000000000000000000000000000000000000008152506040518060400160405280600281526020017f4d50000000000000000000000000000000000000000000000000000000000000815250816000908161008c9190610335565b50806001908161009c9190610335565b50505033600960006101000a81548173ffffffffffffffffffffffffffffffffffffffff021916908373ffffffffffffffffffffffffffffffffffffffff160217905550610407565b600081519050919050565b7f4e487b7100000000000000000000000000000000000000000000000000000000600052604160045260246000fd5b7f4e487b7100000000000000000000000000000000000000000000000000000000600052602260045260246000fd5b6000600282049050600182168061016657607f821691505b6020821081036101795761017861011f565b5b50919050565b60008190508160005260206000209050919050565b60006020601f8301049050919050565b600082821b905092915050565b6000600883026101e17fffffffffffffffffffffffffffffffffffffffffffffffffffffffffffffffff826101a4565b6101eb86836101a4565b95508019841693508086168417925050509392505050565b6000819050919050565b6000819050919050565b600061023261022d61022884610203565b61020d565b610203565b9050919050565b6000819050919050565b61024c83610217565b61026061025882610239565b8484546101b1565b825550505050565b600090565b610275610268565b610280818484610243565b505050565b5b818110156102a45761029960008261026d565b600181019050610286565b5050565b601f8211156102e9576102ba8161017f565b6102c384610194565b810160208510156102d2578190505b6102e66102de85610194565b830182610285565b50505b505050565b600082821c905092915050565b600061030c600019846008026102ee565b1980831691505092915050565b600061032583836102fb565b9150826002028217905092915050565b61033e826100e5565b67ffffffffffffffff811115610357576103566100f0565b5b610361825461014e565b61036c8282856102a8565b600060209050601f83116001811461039f576000841561038d578287015190505b6103978582610319565b8655506103ff565b601f1984166103ad8661017f565b60005b828110156103d5578489015182556001820191506020850194506020810190506103b0565b868310156103f257848901516103ee601f8916826102fb565b8355505b6001600288020188555050505b505050505050565b612b78806104166000396000f3fe60806040526004361061011e5760003560e01c806346904840116100a0578063b7589a8211610064578063b7589a82146103e9578063b88d4fde14610412578063c87b56dd1461043b578063e985e9c514610478578063fe8723e1146104b55761011e565b806346904840146102f05780636352211e1461031b57806370a082311461035857806395d89b4114610395578063a22cb465146103c05761011e565b8063107a274a116100e7578063107a274a1461021c57806323b872dd14610259578063243adbdd14610282578063305a67a81461029e57806342842e0e146102c75761011e565b80620b46f81461012357806301ffc9a71461014e57806306fdde031461018b578063081812fc146101b6578063095ea7b3146101f3575b600080fd5b34801561012f57600080fd5b506101386104de565b6040516101459190611cac565b60405180910390f35b34801561015a57600080fd5b5061017560048036038101906101709190611d33565b6104e3565b6040516101829190611d7b565b60405180910390f35b34801561019757600080fd5b506101a06105c5565b6040516101ad9190611e26565b60405180910390f35b3480156101c257600080fd5b506101dd60048036038101906101d89190611e74565b610657565b6040516101ea9190611ee2565b60405180910390f35b3480156101ff57600080fd5b5061021a60048036038101906102159190611f29565b610673565b005b34801561022857600080fd5b50610243600480360381019061023e9190611e74565b610689565b6040516102509190611fb6565b60405180910390f35b34801561026557600080fd5b50610280600480360381019061027b9190611fd1565b610716565b005b61029c60048036038101906102979190611e74565b610818565b005b3480156102aa57600080fd5b506102c560048036038101906102c09190611e74565b610aa4565b005b3480156102d357600080fd5b506102ee60048036038101906102e99190611fd1565b610c60565b005b3480156102fc57600080fd5b50610305610c80565b6040516103129190611ee2565b60405180910390f35b34801561032757600080fd5b50610342600480360381019061033d9190611e74565b610ca6565b60405161034f9190611ee2565b60405180910390f35b34801561036457600080fd5b5061037f600480360381019061037a9190612024565b610cb8565b60405161038c9190611cac565b60405180910390f35b3480156103a157600080fd5b506103aa610d72565b6040516103b79190611e26565b60405180910390f35b3480156103cc57600080fd5b506103e760048036038101906103e2919061207d565b610e04565b005b3480156103f557600080fd5b50610410600480360381019061040b91906121f2565b610e1a565b005b34801561041e57600080fd5b50610439600480360381019061043491906122dc565b610ea2565b005b34801561044757600080fd5b50610462600480360381019061045d9190611e74565b610ec7565b60405161046f9190611e26565b60405180910390f35b34801561048457600080fd5b5061049f600480360381019061049a919061235f565b610f6c565b6040516104ac9190611d7b565b60405180910390f35b3480156104c157600080fd5b506104dc60048036038101906104d7919061239f565b611000565b005b600a81565b60007f80ac58cd000000000000000000000000000000000000000000000000000000007bffffffffffffffffffffffffffffffffffffffffffffffffffffffff1916827bffffffffffffffffffffffffffffffffffffffffffffffffffffffff191614806105ae57507f5b5e139f000000000000000000000000000000000000000000000000000000007bffffffffffffffffffffffffffffffffffffffffffffffffffffffff1916827bffffffffffffffffffffffffffffffffffffffffffffffffffffffff1916145b806105be57506105bd8261111e565b5b9050919050565b6060600080546105d49061240e565b80601f01602080910402602001604051908101604052809291908181526020018280546106009061240e565b801561064d5780601f106106225761010080835404028352916020019161064d565b820191906000526020600020905b81548152906001019060200180831161063057829003601f168201915b5050505050905090565b600061066282611188565b5061066c82611210565b9050919050565b610685828261068061124d565b611255565b5050565b610691611c63565b60076000838152602001908152602001600020604051806040016040529081600082015481526020016001820160009054906101000a900473ffffffffffffffffffffffffffffffffffffffff1673ffffffffffffffffffffffffffffffffffffffff1673ffffffffffffffffffffffffffffffffffffffff16815250509050919050565b600073ffffffffffffffffffffffffffffffffffffffff168273ffffffffffffffffffffffffffffffffffffffff16036107885760006040517f64a0ae9200000000000000000000000000000000000000000000000000000000815260040161077f9190611ee2565b60405180910390fd5b600061079c838361079761124d565b611267565b90508373ffffffffffffffffffffffffffffffffffffffff168173ffffffffffffffffffffffffffffffffffffffff1614610812578382826040517f64283d7b0000000000000000000000000000000000000000000000000000000081526004016108099392919061243f565b60405180910390fd5b50505050565b600060076000838152602001908152602001600020604051806040016040529081600082015481526020016001820160009054906101000a900473ffffffffffffffffffffffffffffffffffffffff1673ffffffffffffffffffffffffffffffffffffffff1673ffffffffffffffffffffffffffffffffffffffff1681525050905060008160000151116108e1576040517f08c379a00000000000000000000000000000000000000000000000000000000081526004016108d8906124c2565b60405180910390fd5b80600001513414610927576040517f08c379a000000000000000000000000000000000000000000000000000000000815260040161091e9061252e565b60405180910390fd5b60006064600a836000015161093c919061257d565b61094691906125ee565b9050600081836000015161095a919061261f565b9050610967303386610716565b600960009054906101000a900473ffffffffffffffffffffffffffffffffffffffff1673ffffffffffffffffffffffffffffffffffffffff166108fc839081150290604051600060405180830381858888f193505050501580156109cf573d6000803e3d6000fd5b50826020015173ffffffffffffffffffffffffffffffffffffffff166108fc829081150290604051600060405180830381858888f19350505050158015610a1a573d6000803e3d6000fd5b50600760008581526020019081526020016000206000808201600090556001820160006101000a81549073ffffffffffffffffffffffffffffffffffffffff02191690555050837f300e67a54bc31d77bebb0c1dc543ee899cf0d6a4e9097fb39c137937038895bb846000015133604051610a96929190612653565b60405180910390a250505050565b600060076000838152602001908152602001600020604051806040016040529081600082015481526020016001820160009054906101000a900473ffffffffffffffffffffffffffffffffffffffff1673ffffffffffffffffffffffffffffffffffffffff1673ffffffffffffffffffffffffffffffffffffffff168152505090506000816000015111610b6d576040517f08c379a0000000000000000000000000000000000000000000000000000000008152600401610b64906124c2565b60405180910390fd5b3373ffffffffffffffffffffffffffffffffffffffff16816020015173ffffffffffffffffffffffffffffffffffffffff1614610bdf576040517f08c379a0000000000000000000000000000000000000000000000000000000008152600401610bd6906126c8565b60405180910390fd5b610bea303384610716565b600760008381526020019081526020016000206000808201600090556001820160006101000a81549073ffffffffffffffffffffffffffffffffffffffff02191690555050817f411aee90354c51b1b04cd563fcab2617142a9d50da19232d888547c8a1b7fd8a60405160405180910390a25050565b610c7b83838360405180602001604052806000815250610ea2565b505050565b600960009054906101000a900473ffffffffffffffffffffffffffffffffffffffff1681565b6000610cb182611188565b9050919050565b60008073ffffffffffffffffffffffffffffffffffffffff168273ffffffffffffffffffffffffffffffffffffffff1603610d2b5760006040517f89c62b64000000000000000000000000000000000000000000000000000000008152600401610d229190611ee2565b60405180910390fd5b600360008373ffffffffffffffffffffffffffffffffffffffff1673ffffffffffffffffffffffffffffffffffffffff168152602001908152602001600020549050919050565b606060018054610d819061240e565b80601f0160208091040260200160405190810160405280929190818152602001828054610dad9061240e565b8015610dfa5780601f10610dcf57610100808354040283529160200191610dfa565b820191906000526020600020905b815481529060010190602001808311610ddd57829003601f168201915b5050505050905090565b610e16610e0f61124d565b8383611481565b5050565b610e26336008546115f0565b806006600060085481526020019081526020016000209081610e489190612894565b506008547f7cb9830bbf2281f74176fc626829e60baf3933dea03b15c588c8d6d4cf92eb588233604051610e7d929190612966565b60405180910390a2600160086000828254610e989190612996565b9250508190555050565b610ead848484610716565b610ec1610eb861124d565b8585858561160e565b50505050565b6060600660008381526020019081526020016000208054610ee79061240e565b80601f0160208091040260200160405190810160405280929190818152602001828054610f139061240e565b8015610f605780601f10610f3557610100808354040283529160200191610f60565b820191906000526020600020905b815481529060010190602001808311610f4357829003601f168201915b50505050509050919050565b6000600560008473ffffffffffffffffffffffffffffffffffffffff1673ffffffffffffffffffffffffffffffffffffffff16815260200190815260200160002060008373ffffffffffffffffffffffffffffffffffffffff1673ffffffffffffffffffffffffffffffffffffffff16815260200190815260200160002060009054906101000a900460ff16905092915050565b60008111611043576040517f08c379a000000000000000000000000000000000000000000000000000000000815260040161103a90612a16565b60405180910390fd5b61104e333084610716565b60405180604001604052808281526020013373ffffffffffffffffffffffffffffffffffffffff16815250600760008481526020019081526020016000206000820151816000015560208201518160010160006101000a81548173ffffffffffffffffffffffffffffffffffffffff021916908373ffffffffffffffffffffffffffffffffffffffff160217905550905050817fa692b90f136e536c2252eef17a58faab697e92208a6f37b165cd0a8486fc18e98233604051611112929190612653565b60405180910390a25050565b60007f01ffc9a7000000000000000000000000000000000000000000000000000000007bffffffffffffffffffffffffffffffffffffffffffffffffffffffff1916827bffffffffffffffffffffffffffffffffffffffffffffffffffffffff1916149050919050565b600080611194836117bf565b9050600073ffffffffffffffffffffffffffffffffffffffff168173ffffffffffffffffffffffffffffffffffffffff160361120757826040517f7e2732890000000000000000000000000000000000000000000000000000000081526004016111fe9190611cac565b60405180910390fd5b80915050919050565b60006004600083815260200190815260200160002060009054906101000a900473ffffffffffffffffffffffffffffffffffffffff169050919050565b600033905090565b61126283838360016117fc565b505050565b600080611273846117bf565b9050600073ffffffffffffffffffffffffffffffffffffffff168373ffffffffffffffffffffffffffffffffffffffff16146112b5576112b48184866119c1565b5b600073ffffffffffffffffffffffffffffffffffffffff168173ffffffffffffffffffffffffffffffffffffffff1614611346576112f76000856000806117fc565b6001600360008373ffffffffffffffffffffffffffffffffffffffff1673ffffffffffffffffffffffffffffffffffffffff168152602001908152602001600020600082825403925050819055505b600073ffffffffffffffffffffffffffffffffffffffff168573ffffffffffffffffffffffffffffffffffffffff16146113c9576001600360008773ffffffffffffffffffffffffffffffffffffffff1673ffffffffffffffffffffffffffffffffffffffff168152602001908152602001600020600082825401925050819055505b846002600086815260200190815260200160002060006101000a81548173ffffffffffffffffffffffffffffffffffffffff021916908373ffffffffffffffffffffffffffffffffffffffff160217905550838573ffffffffffffffffffffffffffffffffffffffff168273ffffffffffffffffffffffffffffffffffffffff167fddf252ad1be2c89b69c2b068fc378daa952ba7f163c4a11628f55a4df523b3ef60405160405180910390a4809150509392505050565b600073ffffffffffffffffffffffffffffffffffffffff168273ffffffffffffffffffffffffffffffffffffffff16036114f257816040517f5b08ba180000000000000000000000000000000000000000000000000000000081526004016114e99190611ee2565b60405180910390fd5b80600560008573ffffffffffffffffffffffffffffffffffffffff1673ffffffffffffffffffffffffffffffffffffffff16815260200190815260200160002060008473ffffffffffffffffffffffffffffffffffffffff1673ffffffffffffffffffffffffffffffffffffffff16815260200190815260200160002060006101000a81548160ff0219169083151502179055508173ffffffffffffffffffffffffffffffffffffffff168373ffffffffffffffffffffffffffffffffffffffff167f17307eab39ab6107e8899845ad3d59bd9653f200f220920489ca2b5937696c31836040516115e39190611d7b565b60405180910390a3505050565b61160a828260405180602001604052806000815250611a85565b5050565b60008373ffffffffffffffffffffffffffffffffffffffff163b11156117b8578273ffffffffffffffffffffffffffffffffffffffff1663150b7a02868685856040518563ffffffff1660e01b815260040161166d9493929190612a8b565b6020604051808303816000875af19250505080156116a957506040513d601f19601f820116820180604052508101906116a69190612aec565b60015b61172d573d80600081146116d9576040519150601f19603f3d011682016040523d82523d6000602084013e6116de565b606091505b50600081510361172557836040517f64a0ae9200000000000000000000000000000000000000000000000000000000815260040161171c9190611ee2565b60405180910390fd5b805181602001fd5b63150b7a0260e01b7bffffffffffffffffffffffffffffffffffffffffffffffffffffffff1916817bffffffffffffffffffffffffffffffffffffffffffffffffffffffff1916146117b657836040517f64a0ae920000000000000000000000000000000000000000000000000000000081526004016117ad9190611ee2565b60405180910390fd5b505b5050505050565b60006002600083815260200190815260200160002060009054906101000a900473ffffffffffffffffffffffffffffffffffffffff169050919050565b80806118355750600073ffffffffffffffffffffffffffffffffffffffff168273ffffffffffffffffffffffffffffffffffffffff1614155b1561196957600061184584611188565b9050600073ffffffffffffffffffffffffffffffffffffffff168373ffffffffffffffffffffffffffffffffffffffff16141580156118b057508273ffffffffffffffffffffffffffffffffffffffff168173ffffffffffffffffffffffffffffffffffffffff1614155b80156118c357506118c18184610f6c565b155b1561190557826040517fa9fbf51f0000000000000000000000000000000000000000000000000000000081526004016118fc9190611ee2565b60405180910390fd5b811561196757838573ffffffffffffffffffffffffffffffffffffffff168273ffffffffffffffffffffffffffffffffffffffff167f8c5be1e5ebec7d5bd14f71427d1e84f3dd0314c0f7b2291e5b200ac8c7c3b92560405160405180910390a45b505b836004600085815260200190815260200160002060006101000a81548173ffffffffffffffffffffffffffffffffffffffff021916908373ffffffffffffffffffffffffffffffffffffffff16021790555050505050565b6119cc838383611aa9565b611a8057600073ffffffffffffffffffffffffffffffffffffffff168373ffffffffffffffffffffffffffffffffffffffff1603611a4157806040517f7e273289000000000000000000000000000000000000000000000000000000008152600401611a389190611cac565b60405180910390fd5b81816040517f177e802f000000000000000000000000000000000000000000000000000000008152600401611a77929190612b19565b60405180910390fd5b505050565b611a8f8383611b6a565b611aa4611a9a61124d565b600085858561160e565b505050565b60008073ffffffffffffffffffffffffffffffffffffffff168373ffffffffffffffffffffffffffffffffffffffff1614158015611b6157508273ffffffffffffffffffffffffffffffffffffffff168473ffffffffffffffffffffffffffffffffffffffff161480611b225750611b218484610f6c565b5b80611b6057508273ffffffffffffffffffffffffffffffffffffffff16611b4883611210565b73ffffffffffffffffffffffffffffffffffffffff16145b5b90509392505050565b600073ffffffffffffffffffffffffffffffffffffffff168273ffffffffffffffffffffffffffffffffffffffff1603611bdc5760006040517f64a0ae92000000000000000000000000000000000000000000000000000000008152600401611bd39190611ee2565b60405180910390fd5b6000611bea83836000611267565b9050600073ffffffffffffffffffffffffffffffffffffffff168173ffffffffffffffffffffffffffffffffffffffff1614611c5e5760006040517f73c6ac6e000000000000000000000000000000000000000000000000000000008152600401611c559190611ee2565b60405180910390fd5b505050565b604051806040016040528060008152602001600073ffffffffffffffffffffffffffffffffffffffff1681525090565b6000819050919050565b611ca681611c93565b82525050565b6000602082019050611cc16000830184611c9d565b92915050565b6000604051905090565b600080fd5b600080fd5b60007fffffffff0000000000000000000000000000000000000000000000000000000082169050919050565b611d1081611cdb565b8114611d1b57600080fd5b50565b600081359050611d2d81611d07565b92915050565b600060208284031215611d4957611d48611cd1565b5b6000611d5784828501611d1e565b91505092915050565b60008115159050919050565b611d7581611d60565b82525050565b6000602082019050611d906000830184611d6c565b92915050565b600081519050919050565b600082825260208201905092915050565b60005b83811015611dd0578082015181840152602081019050611db5565b60008484015250505050565b6000601f19601f8301169050919050565b6000611df882611d96565b611e028185611da1565b9350611e12818560208601611db2565b611e1b81611ddc565b840191505092915050565b60006020820190508181036000830152611e408184611ded565b905092915050565b611e5181611c93565b8114611e5c57600080fd5b50565b600081359050611e6e81611e48565b92915050565b600060208284031215611e8a57611e89611cd1565b5b6000611e9884828501611e5f565b91505092915050565b600073ffffffffffffffffffffffffffffffffffffffff82169050919050565b6000611ecc82611ea1565b9050919050565b611edc81611ec1565b82525050565b6000602082019050611ef76000830184611ed3565b92915050565b611f0681611ec1565b8114611f1157600080fd5b50565b600081359050611f2381611efd565b92915050565b60008060408385031215611f4057611f3f611cd1565b5b6000611f4e85828601611f14565b9250506020611f5f85828601611e5f565b9150509250929050565b611f7281611c93565b82525050565b611f8181611ec1565b82525050565b604082016000820151611f9d6000850182611f69565b506020820151611fb06020850182611f78565b50505050565b6000604082019050611fcb6000830184611f87565b92915050565b600080600060608486031215611fea57611fe9611cd1565b5b6000611ff886828701611f14565b935050602061200986828701611f14565b925050604061201a86828701611e5f565b9150509250925092565b60006020828403121561203a57612039611cd1565b5b600061204884828501611f14565b91505092915050565b61205a81611d60565b811461206557600080fd5b50565b60008135905061207781612051565b92915050565b6000806040838503121561209457612093611cd1565b5b60006120a285828601611f14565b92505060206120b385828601612068565b9150509250929050565b600080fd5b600080fd5b7f4e487b7100000000000000000000000000000000000000000000000000000000600052604160045260246000fd5b6120ff82611ddc565b810181811067ffffffffffffffff8211171561211e5761211d6120c7565b5b80604052505050565b6000612131611cc7565b905061213d82826120f6565b919050565b600067ffffffffffffffff82111561215d5761215c6120c7565b5b61216682611ddc565b9050602081019050919050565b82818337600083830152505050565b600061219561219084612142565b612127565b9050828152602081018484840111156121b1576121b06120c2565b5b6121bc848285612173565b509392505050565b600082601f8301126121d9576121d86120bd565b5b81356121e9848260208601612182565b91505092915050565b60006020828403121561220857612207611cd1565b5b600082013567ffffffffffffffff81111561222657612225611cd6565b5b612232848285016121c4565b91505092915050565b600067ffffffffffffffff821115612256576122556120c7565b5b61225f82611ddc565b9050602081019050919050565b600061227f61227a8461223b565b612127565b90508281526020810184848401111561229b5761229a6120c2565b5b6122a6848285612173565b509392505050565b600082601f8301126122c3576122c26120bd565b5b81356122d384826020860161226c565b91505092915050565b600080600080608085870312156122f6576122f5611cd1565b5b600061230487828801611f14565b945050602061231587828801611f14565b935050604061232687828801611e5f565b925050606085013567ffffffffffffffff81111561234757612346611cd6565b5b612353878288016122ae565b91505092959194509250565b6000806040838503121561237657612375611cd1565b5b600061238485828601611f14565b925050602061239585828601611f14565b9150509250929050565b600080604083850312156123b6576123b5611cd1565b5b60006123c485828601611e5f565b92505060206123d585828601611e5f565b9150509250929050565b7f4e487b7100000000000000000000000000000000000000000000000000000000600052602260045260246000fd5b6000600282049050600182168061242657607f821691505b602082108103612439576124386123df565b5b50919050565b60006060820190506124546000830186611ed3565b6124616020830185611c9d565b61246e6040830184611ed3565b949350505050565b7f4e4654206e6f74206c6973746564000000000000000000000000000000000000600082015250565b60006124ac600e83611da1565b91506124b782612476565b602082019050919050565b600060208201905081810360008301526124db8161249f565b9050919050565b7f496e636f7272656374207061796d656e7420616d6f756e740000000000000000600082015250565b6000612518601883611da1565b9150612523826124e2565b602082019050919050565b600060208201905081810360008301526125478161250b565b9050919050565b7f4e487b7100000000000000000000000000000000000000000000000000000000600052601160045260246000fd5b600061258882611c93565b915061259383611c93565b92508282026125a181611c93565b915082820484148315176125b8576125b761254e565b5b5092915050565b7f4e487b7100000000000000000000000000000000000000000000000000000000600052601260045260246000fd5b60006125f982611c93565b915061260483611c93565b925082612614576126136125bf565b5b828204905092915050565b600061262a82611c93565b915061263583611c93565b925082820390508181111561264d5761264c61254e565b5b92915050565b60006040820190506126686000830185611c9d565b6126756020830184611ed3565b9392505050565b7f4e6f74207468652073656c6c6572000000000000000000000000000000000000600082015250565b60006126b2600e83611da1565b91506126bd8261267c565b602082019050919050565b600060208201905081810360008301526126e1816126a5565b9050919050565b60008190508160005260206000209050919050565b60006020601f8301049050919050565b600082821b905092915050565b60006008830261274a7fffffffffffffffffffffffffffffffffffffffffffffffffffffffffffffffff8261270d565b612754868361270d565b95508019841693508086168417925050509392505050565b6000819050919050565b600061279161278c61278784611c93565b61276c565b611c93565b9050919050565b6000819050919050565b6127ab83612776565b6127bf6127b782612798565b84845461271a565b825550505050565b600090565b6127d46127c7565b6127df8184846127a2565b505050565b5b81811015612803576127f86000826127cc565b6001810190506127e5565b5050565b601f82111561284857612819816126e8565b612822846126fd565b81016020851015612831578190505b61284561283d856126fd565b8301826127e4565b50505b505050565b600082821c905092915050565b600061286b6000198460080261284d565b1980831691505092915050565b6000612884838361285a565b9150826002028217905092915050565b61289d82611d96565b67ffffffffffffffff8111156128b6576128b56120c7565b5b6128c0825461240e565b6128cb828285612807565b600060209050601f8311600181146128fe57600084156128ec578287015190505b6128f68582612878565b86555061295e565b601f19841661290c866126e8565b60005b828110156129345784890151825560018201915060208501945060208101905061290f565b86831015612951578489015161294d601f89168261285a565b8355505b6001600288020188555050505b505050505050565b600060408201905081810360008301526129808185611ded565b905061298f6020830184611ed3565b9392505050565b60006129a182611c93565b91506129ac83611c93565b92508282019050808211156129c4576129c361254e565b5b92915050565b7f5072696365206d7573742062652067726561746572207468616e203000000000600082015250565b6000612a00601c83611da1565b9150612a0b826129ca565b602082019050919050565b60006020820190508181036000830152612a2f816129f3565b9050919050565b600081519050919050565b600082825260208201905092915050565b6000612a5d82612a36565b612a678185612a41565b9350612a77818560208601611db2565b612a8081611ddc565b840191505092915050565b6000608082019050612aa06000830187611ed3565b612aad6020830186611ed3565b612aba6040830185611c9d565b8181036060830152612acc8184612a52565b905095945050505050565b600081519050612ae681611d07565b92915050565b600060208284031215612b0257612b01611cd1565b5b6000612b1084828501612ad7565b91505092915050565b6000604082019050612b2e6000830185611ed3565b612b3b6020830184611c9d565b939250505056fea264697066735822122048844ec099365781478bb302800d2f198dfcdb604e7186970a0f41e1c244f88464736f6c634300081c0033",
  "linkReferences": {},
  "deployedLinkReferences": {}
}